S01300004156525F445249564552532E73726563AA
S11300000C942A000C9472000C9499000C94C00077
S11300100C9447000C9447000C9447000C94470040
S11300200C9447000C9447000C943B010C9462011F
S11300300C9410010C9489010C94B2010C94DB0112
S11300400C9447000C9447000C9449000C94EB006A
S11300500C94470011241FBECFE5D8E0DEBFCDBF0E
S113006010E0A0E6B0E0E6E6F5E002C005900D92EF
S1130070AA37B107D9F720E0AAE7B0E001C01D9282
S1130080A639B207E1F70E9468020C94B1020C94FD
S113009000001F920F920FB60F9211242F933F93DB
S11300A04F935F936F937F938F939F93AF93BF937C
S11300B0EF93FF93E0917A00F0917B00309709F081
S11300C00995FF91EF91BF91AF919F918F917F918E
S11300D06F915F914F913F912F910F900FBE0F90B1
S11300E01F9018951F920F920FB60F9211242F9301
S11300F03F934F935F936F937F938F939F93AF93AC
S1130100BF93EF93FF93E0917C00F0917D000995FC
S1130110FF91EF91BF91AF919F918F917F916F91DB
S11301205F914F913F912F910F900FBE0F901F90B1
S113013018951F920F920FB60F9211242F933F938D
S11301404F935F936F937F938F939F93AF93BF93DB
S1130150EF93FF93E0917E00F0917F000995FF916A
S1130160EF91BF91AF919F918F917F916F915F912B
S11301704F913F912F910F900FBE0F901F901895A4
S11301801F920F920FB60F9211242F933F934F9308
S11301905F936F937F938F939F93AF93BF93EF93EB
S11301A0FF93E0918000F09181000995FF91EF9118
S11301B0BF91AF919F918F917F916F915F914F917B
S11301C03F912F910F900FBE0F901F9018958FB7EE
S11301D080688FBF08951F920F920FB60F9211245B
S11301E02F933F934F935F936F937F938F939F933B
S11301F0AF93BF93EF93FF93E0E0F0E00995FF9195
S1130200EF91BF91AF919F918F917F916F915F918A
S11302104F913F912F910F900FBE0F901F90189503
S11302201F920F920FB60F9211248F93EF93FF93A7
S1130230E0918200F0918300309711F08FB18083B8
S1130240FF91EF918F910F900FBE0F901F90189513
S113025083B7877B856083BF82B7806F82BF88B78F
S11302608E7F88BF89B7816089BF08959093870086
S11302708093860008951F920F920FB60F92112457
S11302802F933F934F935F936F937F938F939F939A
S1130290AF93BF93EF93FF93E0918400F0918500B7
S11302A00995FF91EF91BF91AF919F918F917F91AC
S11302B06F915F914F913F912F910F900FBE0F90CF
S11302C01F9018951F920F920FB60F9211242F931F
S11302D03F934F935F936F937F938F939F93AF93CA
S11302E0BF93EF93FF93E0918600F0918700099507
S11302F0FF91EF91BF91AF919F918F917F916F91FA
S11303005F914F913F912F910F900FBE0F901F90CF
S113031018951F920F920FB60F9211242F933F93AB
S11303204F935F936F937F938F939F93AF93BF93F9
S1130330EF93FF93E0918C00F0918D00309709F0DA
S11303400995FF91EF91BF91AF919F918F917F910B
S11303506F915F914F913F912F910F900FBE0F902E
S11303601F9018951F920F920FB60F9211242F937E
S11303703F934F935F936F937F938F939F93AF9329
S1130380BF93EF93FF93E0918800F0918900309739
S113039009F00995FF91EF91BF91AF919F918F91D2
S11303A07F916F915F914F913F912F910F900FBE6D
S11303B00F901F9018951F920F920FB60F92112451
S11303C02F933F934F935F936F937F938F939F9359
S11303D0AF93BF93EF93FF93E0918A00F0918B006A
S11303E0309709F00995FF91EF91BF91AF919F91DB
S11303F08F917F916F915F914F913F912F910F90CA
S11304000FBE0F901F901895CF93DF9382B7806F24
S113041082BFC0E0D0E027C0FE01EE0FFF1FEE5602
S1130420FF4F0190F081E02D3097E1F0808581113C
S113043019C085819681009791F40380F481E02DA1
S11304400995FE01EE0FFF1FEE56FF4F0190F0815C
S1130450E02D8081918101979683858303C0019764
S1130460968385832196C230D105B0F280918E00A7
S113047090918F00A0919000B09191000196A11DE0
S1130480B11D80938E0090938F00A0939000B09341
S11304909100DF91CF910895DC011296EC91F0E088
S11304A0EE0FFF1FEE56FF4F9183808308950E9445
S11304B0E70084E092E00E9436010E94280108953A
S11304C085E00E948902089586E00E9489020895C9
S11304D00E94A8020E94E70089E690E00E944C0274
S11304E080E690E00E944C020E9457022FEF83EDB9
S11304F090E3215080409040E1F700C000002FEFCE
S113050083ED90E3215080409040E1F700C000006B
S1130510EDCF8032D8F4E82FE695E695E69587701E
S1130520F0E0EE0FFF1FEE58FF4F0190F081E02D39
S1130530408121E030E0B90102C0660F771F8A953F
S1130540E2F7CB018427808382E0089580E0089558
S113055080E78ABB80E887BB8CEF84BB80E681BBE5
S10905600895F894FFCF9A
S1130566F40101640200000200F401006002D007F5
S10D057601003B003800350032009C
S9030000FC
