:100000000C942A000C9464110C9490110C94BC1163
:100010000C9406150C94DD140C94B4140C942D025D
:100020000C948B140C9462140C9442140C941B14B6
:100030000C94F2130C942F150C9447000C94581543
:100040000C94DE0F0C9447000C9447000C9447006E
:100050000C94470011241FBECFE5D8E0DEBFCDBF12
:1000600010E0A0E6B0E0EEE5FBE202C005900D92E4
:10007000AE3EB107D9F727E0AEEEB0E001C01D9269
:10008000A838B207E1F70E94160C0C94AD150C9439
:100090000000FC010396928381832FEF3FEF3483AE
:1000A0002383968385839087878310820895FC013C
:1000B000118610860895CF93DF939C01FB01DC012C
:1000C0001196CD91DC911297D383C2838C819D814F
:1000D000958384838C819D81DC0113967C936E9340
:1000E00012977D836C8331872087F90180818F5F30
:1000F0008083DF91CF910895CF93DF93EB01488107
:1001000059814F3F2FEF520721F4FC01A781B085A1
:100110000DC0DC01139601C0DF011296ED91FC9138
:1001200013972081318142175307B0F71296ED9152
:10013000FC911397FB83EA83D583C483BD83AC838F
:100140001396DC93CE93129799878887FC012081C0
:100150002F5F2083DF91CF910895CF93DF93FC0130
:10016000A085B185C281D381848195819D838C8353
:10017000C481D581828193819B838A8311968D91DD
:100180009C911297E817F90731F4848195811296B2
:100190009C938E931197118610868C9181508C932D
:1001A0008C91DF91CF9108951BBC8CE78ABD8BE0C9
:1001B0008EBD89B7806189BF089531E1FC0130832C
:1001C000319722E220833197A3E3A08331976083A4
:1001D0003197708331971082319760E8608331974F
:1001E0001082319762E06083319763E060833197DA
:1001F00064E06083319765E06083319766E06083F7
:10020000319767E06083319768E06083319769E0F8
:100210006083319760E1608331973083319732E1B9
:100220003083319733E13083319734E13083319734
:1002300035E13083319736E13083319737E13083D0
:10024000319738E13083319739E13083319730E2AB
:100250003083319731E2308331972083319723E225
:1002600020833197408331975083319726E2208352
:10027000319727E22083319728E22083319729E2C2
:100280002083319720E32083319721E320838697D1
:1002900008950E94D400A0914507B0914607CD91E2
:1002A000CDBFDD91DEBFFF91EF91DF91CF91BF9187
:1002B000AF919F918F917F916F915F914F913F91FE
:1002C0002F911F910F91FF90EF90DF90CF90BF90F3
:1002D000AF909F908F907F906F905F904F903F90E6
:1002E0002F901F900F900FBE0F90089581E00895FA
:1002F0000F920FB6F8940F921F9211242F923F92F3
:100300004F925F926F927F928F929F92AF92BF9225
:10031000CF92DF92EF92FF920F931F932F933F9311
:100320004F935F936F937F938F939F93AF93BF93FD
:10033000CF93DF93EF93FF93A0914507B0914607CA
:100340000DB60D920EB60D920E94AA09A091450716
:10035000B0914607CD91CDBFDD91DEBFFF91EF910A
:10036000DF91CF91BF91AF919F918F917F916F91CD
:100370005F914F913F912F911F910F91FF90EF90BF
:10038000DF90CF90BF90AF909F908F907F906F90B5
:100390005F904F903F902F901F900F900FBE0F9047
:1003A00008950F920FB6F8940F921F9211242F9276
:1003B0003F924F925F926F927F928F929F92AF92F5
:1003C000BF92CF92DF92EF92FF920F931F932F93E2
:1003D0003F934F935F936F937F938F939F93AF93CD
:1003E000BF93CF93DF93EF93FF93A0914507B09115
:1003F00046070DB60D920EB60D920E94A50781110B
:100400000E94AA09A0914507B0914607CD91CDBFA2
:10041000DD91DEBFFF91EF91DF91CF91BF91AF9161
:100420009F918F917F916F915F914F913F912F910C
:100430001F910F91FF90EF90DF90CF90BF90AF9002
:100440009F908F907F906F905F904F903F902F90F4
:100450001F900F900FBE0F9008950E94D101189524
:10046000CF93DF93EC010E949F078091EE00909163
:10047000EF00892B31F482EF90E09093EF008093AE
:10048000EE002097C9F08091F0009091F1009E015C
:10049000280F391F2B3D45E0340788F48217930756
:1004A00088F4C091EE00D091EF00C80FD91F3093AF
:1004B000F1002093F00008C0C0E0D0E005C0C0E02B
:1004C000D0E002C0C0E0D0E00E94BF08CE01DF91C2
:1004D000CF91089508950FB6F8940F92FC01828D84
:1004E000811102C081E001C080E00F900FBE08952D
:1004F0000FB6F8940F92FC01228D838D281302C051
:1005000081E001C080E00F900FBE08950F931F930C
:10051000CF93DF93EC01042F1A8D4C8D4423B9F156
:10052000011116C050E08A819B810E94A4152C8D78
:100530008A819B81820F911D9B838A832C813D81BF
:100540008217930720F1888199819B838A831FC03A
:1005500050E08E819F810E94A4158C8D90E0919532
:10056000819591092E813F81280F391F3F832E836A
:10057000488159812417350730F42C813D81820F41
:10058000931F9F838E83023011F4111111501F5F4E
:100590001A8F80E0DF91CF911F910F9108951F93E3
:1005A000CF93DF93EC010FB6F8940F921E8D0BC022
:1005B0008989882351F0CE0141960E94100A811149
:1005C0000E94170B115011169CF38FEF8E8F0F9016
:1005D0000FBE0FB6F8940F921D8D0BC0888588232F
:1005E00051F0CE0108960E94100A81110E94170B4B
:1005F000115011169CF38FEF8D8F0F900FBEDF916E
:10060000CF911F9108950F931F93CF93DF93FC0118
:10061000362F892B09F44DC0238D222309F44BC0BA
:10062000022F10E08FEF9FEFB8010E948115448DDB
:10063000842F90E06817790708F43FC0EF010FB6E8
:10064000F8940F9260817181FB01249FE00DF11DF0
:100650001124FD83EC831A8E7B836A830150110978
:10066000809FA001819F500D909F500D1124CB01C0
:10067000840F951F9F838E838FEF8D8F8E8F311107
:100680000CC08885882389F0CE0108960E94100A44
:10069000882359F00E94780108C0CE0108960E9474
:1006A0004900CE0141960E9449000F900FBE81E0A3
:1006B00005C080E003C080E001C080E0DF91CF9101
:1006C0001F910F9108950F931F93F801611103C0BB
:1006D0001183008302C051834083838F648F61E064
:1006E000CF010E9403031F910F910895DF92EF92B3
:1006F000FF920F931F93CF93DF93382FE62F88231A
:1007000029F1682F70E08FEF9FEF0E9481158E2FE7
:1007100090E068177907E8F03E9FC0011124813E00
:100720002FEF9207C8F4D42EDE2FC32F4F960E94CE
:1007300030027C01009791F08C012D2DAC01415EBF
:100740005F4F6D2F8C2F0E94630308C0E12CF12CAA
:1007500005C0E12CF12C02C0E12CF12CC701DF9186
:10076000CF911F910F91FF90EF90DF900895CF925E
:10077000DF92EF92FF920F931F93CF93DF9300D0FE
:1007800000D01F92CDB7DEB78C017B015D834C8317
:10079000C22ED12C0FB6F8940F92F801928D838D52
:1007A000981718F0F2E0CF1219C04C2DB701C8010C
:1007B0000E948602F8019189992349F0C801419667
:1007C0000E94100A882331F00E94780103C0811131
:1007D0000E9478010F900FBE81E04DC08C819D81F9
:1007E000892B21F40F900FBE80E045C0D11006C0C8
:1007F000CE0101960E94CD0ADD24D3940F900FBE46
:100800000E949F070FB6F8940F92F801858D8F3FD5
:1008100009F4158EF801868D8F3F09F4168E0F901E
:100820000FBEBE016C5F7F4FCE0101960E94D80AB9
:1008300081111BC0C8010E947802882381F06C815D
:100840007D81C80108960E94FE09C8010E94CF025E
:100850000E94BF0881119ECF0E9478019BCFC801E2
:100860000E94CF020E94BF0895CFC8010E94CF020C
:100870000E94BF0880E00F900F900F900F900F9094
:10088000DF91CF911F910F91FF90EF90DF90CF906C
:100890000895FF920F931F93CF93DF9300D000D062
:1008A0001F92CDB7DEB78C017D836C83F12C0FB620
:1008B000F8940F92F801828D882381F08150828F05
:1008C0008085882339F0C80108960E94100A81119A
:1008D0000E9478010F900FBE81E053C08C819D81F2
:1008E000892B21F40F900FBE80E04BC0F11006C0A1
:1008F000CE0101960E94CD0AFF24F3940F900FBE03
:100900000E949F070FB6F8940F92F801858D8F3FD4
:1009100009F4158EF801868D8F3F09F4168E0F901D
:100920000FBEBE016C5F7F4FCE0101960E94D80AB8
:1009300081111BC0C8010E946B02882381F06C8169
:100940007D81C80141960E94FE09C8010E94CF0224
:100950000E94BF088111ABCF0E947801A8CFC801C7
:100960000E94CF020E94BF08A2CFC8010E94CF02FE
:100970000E94BF08C8010E946B02882309F497CF28
:1009800080E00F900F900F900F900F90DF91CF911C
:100990001F910F91FF900895E091FB06F091FC06E6
:1009A0008081811107C08FEF9FEF9093D2068093D3
:1009B000D1060895E091FB06F091FC060580F681D2
:1009C000E02D808191819093D2068093D106089585
:1009D000CF93DF93EC018F89988D0E946A02CE013C
:1009E0000E946A02DF91CF9108956F927F928F9259
:1009F0009F92AF92BF92CF92DF92EF920F931F938D
:100A0000CF93DF93CDB7DEB74C01F5018789908D89
:100A1000215031093C01620E731E6115710589F484
:100A200015C0822F90E0FB01E80FF91F3081D5013E
:100A3000A80FB91F59963C938081882329F02F5F16
:100A400001C020E0283068F3F50110A2F5E0FE15A2
:100A500020F40F2EF5E0EF2EF02DF501E68AC5010A
:100A600002960E945700C5010C960E945700F5019E
:100A7000B186A08686E090E08E19910995878487DB
:100A8000B38AA28AA801B401C3010E94DD00F50166
:100A900091838083C114D10419F0F601B182A08240
:100AA000DF91CF911F910F91EF90DF90CF90BF908A
:100AB000AF909F908F907F906F900895CF93C0E0FC
:100AC00010C08C2F90E09C01220F331F220F331F88
:100AD000220F331F820F931F815F984F0E9449009E
:100AE000CF5FC63070F386E097E00E9449008DEF3B
:100AF00096E00E94490080EF96E00E94490087EE50
:100B000096E00E9449008DED96E00E94490086E043
:100B100097E09093FC068093FB068DEF96E0909310
:100B2000FA068093F906CF910895CF93DF93EC01F5
:100B30000FB6F8940F928091DC068F5F8093DC06ED
:100B40008091450790914607892B59F4D093460729
:100B5000C09345078091DC06813099F40E945E05C0
:100B600010C08091D80681110CC0E0914507F0912A
:100B7000460796898E89891720F0D0934607C0933F
:100B800045078091D3068F5F8093D3068E8990911D
:100B9000D906981710F48093D90690E0FC01EE0F67
:100BA000FF1FEE0FFF1FEE0FFF1F8E0F9F1FFC0199
:100BB000E15FF84F0180F281E02DFD83EC838481B9
:100BC00095819F838E83A481B581CE010296139671
:100BD0009C938E93129795838483EE89F0E0CF01E6
:100BE000880F991F880F991F880F991FE80FF91F09
:100BF000E15FF84FFB87EA8780818F5F80830F90EA
:100C00000FBE8091D806882351F0E0914507F091FE
:100C1000460796898E89981710F40E947801DF9113
:100C2000CF910895CF93DF931CC00FB6F8940F9225
:100C3000E091EC06F091ED06C681D781CE010296D7
:100C40000E94AD008091DC0681508093DC0680918B
:100C5000E60681508093E6060F900FBECE010E94FB
:100C6000E8048091E6068111E0CFDF91CF910895ED
:100C70000E94120680910F078230D0F30E94780103
:100C8000F7CFFF920F931F93CF93DF93EC01F62ED4
:100C90000091DA061091DB06809145079091460796
:100CA00002960E94AD00CF3F8FEFD807B1F5FF202D
:100CB000A1F1EDEDF6E0A181B281C0914507D0919F
:100CC0004607BD83AC83C0914507D0914607149673
:100CD0008D919C9115979F838E831496CD91DC9175
:100CE0001597809145079091460702969B838A83CA
:100CF0008091450790914607029615969C938E9396
:100D00001497A0914507B09146071B96FC93EE936C
:100D10001A9780818F5F80832FC0C00FD11FE09111
:100D20004507F0914607D383C283C017D10768F403
:100D300060914507709146078091F9069091FA06F7
:100D40006E5F7F4F0E947C0017C0609145077091D5
:100D500046078091FB069091FC066E5F7F4F0E94D4
:100D60007C008091D1069091D206C817D90720F453
:100D7000D093D206C093D106DF91CF911F910F91EE
:100D8000FF9008952F923F924F925F926F927F92C1
:100D90008F929F92AF92BF92CF92DF92EF92FF928B
:100DA0000F931F93CF93DF933C011B015A0129013D
:100DB000CA010E9430026C01892B99F086E290E012
:100DC0000E943002EC01892B41F086E2FE01119273
:100DD0008A95E9F7D88ECF8A06C0C6010E946A02BA
:100DE00002C0C0E0D0E0209791F0950140E050E0D3
:100DF000812C912C5E016701E02E8201B101C301BB
:100E00000E94F504CE010E94950581E001C08FEF9C
:100E1000DF91CF911F910F91FF90EF90DF90CF90D6
:100E2000BF90AF909F908F907F906F905F904F900A
:100E30003F902F9008950F931F93CF93DF93EC0172
:100E40000FB6F8940F92892B21F4C0914507D091E9
:100E500046078E010E5F1F4FC8010E94AD008C89AE
:100E60009D89892B21F0CE010C960E94AD008091C6
:100E7000D3068F5F8093D3068091450790914607F4
:100E8000C817D90759F4B80187EE96E00E945B00B5
:100E90008091E6068F5F8093E60607C08091DC06AE
:100EA00081508093DC060E94CC040F900FBE80918D
:100EB000450790914607C817D90719F0CE010E943F
:100EC000E8048091D806882349F0809145079091E5
:100ED0004607C817D90711F40E947801DF91CF9116
:100EE0001F910F910895EF92FF920F930F2EFFEC39
:100EF000EF2EF6E0FF2EF02D00E020E030E046E996
:100F000050E063E670E088E396E00E94C20681301C
:100F100081F4F8948FEF9FEF9093D2068093D106DF
:100F200081E08093D8061092DB061092DA060E94C8
:100F30004901809160000F91FF90EF90089580919A
:100F4000CE068F5F8093CE0608950F931F93CF93A5
:100F5000DF938091CE06811101C1C091DA06D09154
:100F6000DB068E010F5F1F4F1093DB060093DA063E
:100F700001151105B9F48091FB069091FC062091B2
:100F8000F9063091FA063093FC062093FB06909305
:100F9000FA068093F9068091D4068F5F8093D40679
:100FA0000E94CC048091D1069091D20608171907AF
:100FB00020F480E0B8C081E001C080E0E091FB0651
:100FC000F091FC069081911107C02FEF3FEF309315
:100FD000D2062093D106A7C0E091FB06F091FC0653
:100FE0000580F681E02D0680F781E02D2281338196
:100FF0000217130728F43093D2062093D10693C02A
:10100000A285B3852481358146815781E9015D83BD
:101010004C832681378144815581E9015B834A8372
:1010200011962D913C911297AF014E5F5F4F24179F
:10103000350731F42681378112963C932E93119710
:10104000138612869C9191509C93A489B589109720
:1010500019F12685378560897189E9017D836C8363
:101060002089318966857785E9017B836A831196BA
:101070006D917C9112979F01245F3F4F6217730718
:1010800031F42089318912963C932E931197158A59
:10109000148A9C9191509C9326899091D90692171D
:1010A00010F42093D90630E0D901AA0FBB1FAA0F74
:1010B000BB1FAA0FBB1F2A0F3B1FD901A15FB84F4F
:1010C00011960D90BC91A02DB583A48314962D91FB
:1010D0003C9115973783268314962D913C91159753
:1010E000E9015B834A8315965C934E931497A68916
:1010F000B0E09D01220F331F220F331F220F331F39
:10110000A20FB31FA15FB84FB387A2879C919F5FC7
:101110009C932689E0914507F0914607968992179E
:1011200008F449CF4BCFE0914507F0914607268957
:1011300030E0F901EE0FFF1FEE0FFF1FEE0FFF1F54
:101140002E0F3F1FF901E15FF84F9081923008F0B8
:1011500081E09091D50691110CC00CC08091D6060B
:101160009091D70601969093D7068093D60680E09B
:1011700001C081E0DF91CF911F910F910895CF932E
:10118000DF930FB6F8940F928091CE068150809332
:10119000CE068091CE068111BFC08091DC06811100
:1011A00096C0BDC0E091F506F091F6060680F78185
:1011B000E02DA489B589C685D785808991899D83CD
:1011C0008C83C089D189868597859B838A83119674
:1011D0002D913C911297CF010C962817390731F4C5
:1011E0008089918912969C938E931197158A148AFF
:1011F0008C9181508C93A285B385C481D5818681E1
:1012000097819D838C83C681D781848195819B83BF
:101210008A8311968D919C9112979F012E5F3F4F6B
:101220008217930731F48681978112969C938E934F
:101230001197138612868C9181508C938689909198
:10124000D906981710F48093D90690E0DC01AA0F14
:10125000BB1FAA0FBB1FAA0FBB1F8A0F9B1FDC015E
:10126000A15FB84F11960D90BC91A02DB583A483BA
:1012700014968D919C911597978386831496CD91A2
:10128000DC9115973B832A8315963C932E931497F4
:10129000A689B0E0CD01880F991F880F991F880F8C
:1012A000991FA80FB91FA15FB84FB387A2878C9170
:1012B0008F5F8C939689A0914507B091460756960B
:1012C0008C91981730F081E08093D50602C0E0E061
:1012D000F0E08091F006811165CFEF2B11F00E94B4
:1012E000CC04C091D606D091D706209769F00E9411
:1012F000A507882319F081E08093D5062197B9F7D7
:101300001092D7061092D6068091D506882331F028
:101310000E94780181E003C080E001C080E00F906E
:101320000FBEDF91CF910895CF93DF93EC01892B0E
:1013300049F00E949F0760E0CE010E9441060E9492
:10134000BF0801C080E0811102C00E947801DF91D6
:10135000CF9108958091CE06882321F081E080937B
:10136000D50608951092D5062091D90601C02150C6
:10137000822F90E0FC01EE0FFF1FEE0FFF1FEE0F1C
:10138000FF1FE80FF91FE15FF84F3081332379F336
:10139000AC01440F551F440F551F440F551F480FF4
:1013A000591FDF010180F281E02D0280F381E02DE1
:1013B0001296FC93EE9311974E5E584FE417F50783
:1013C00029F442815381FD0152834183FC01EE0FD8
:1013D000FF1FEE0FFF1FEE0FFF1F8E0F9F1FFC0161
:1013E000E15FF84F0180F281E02D86819781909333
:1013F0004607809345072093D9060895CF93DF933E
:10140000EB016091450770914607645F7F4F0E9432
:101410007C0061E0CE010E944106DF91CF910895EA
:10142000CF93DF93DC011596ED91FC911697068022
:10143000F781E02DA489B589C685D78580899189F2
:101440009D838C83C089D189868597859B838A8378
:1014500011968D919C9112979F01245F3F4F8217A7
:10146000930731F48089918912969C938E931197FA
:10147000158A148A8C9181508C938091CE068111AB
:1014800060C0A285B385C481D581868197819D8303
:101490008C83C681D781848195819B838A831196B1
:1014A0008D919C9112979F012E5F3F4F821793075A
:1014B00031F48681978112969C938E9311971386AF
:1014C00012868C9181508C9386899091D9069817B9
:1014D00010F48093D90690E0DC01AA0FBB1FAA0F7D
:1014E000BB1FAA0FBB1F8A0F9B1FDC01A15FB84F58
:1014F00011960D90BC91A02DB583A48314968D9167
:101500009C911597978386831496CD91DC911597BE
:101510003B832A8315963C932E931497A689B0E0BB
:10152000CD01880F991F880F991F880F991FA80F49
:10153000B91FA15FB84FB387A2878C918F5F8C933F
:101540001CC040EF56E0DA011196CD91DC91129764
:10155000D787C6878C819D81918B808B8C819D8163
:10156000DC0113963C932E9312973D832C83558B6D
:10157000448BDA018C918F5F8C939689E0914507BB
:10158000F09146078689891720F481E08093D5067B
:1015900001C080E0DF91CF9108952091D406FC0135
:1015A00020832091DA063091DB063283218308956F
:1015B0001F93CF93DF930FB6F8940F92E091DA0662
:1015C000F091DB06DC0111964D915C911297DF01E1
:1015D000A41BB50BEB01288139812F3FDFEF3D07BD
:1015E000F9F0EC011881C091D4061C1741F0E41702
:1015F000F50728F0FB011182108281E012C0A217CA
:10160000B30748F4FB012A1B3B0B318320830E9464
:10161000CD0A80E006C0DB011D921C9281E001C072
:1016200080E00F900FBEDF91CF911F91089581E070
:101630008093D5060895CF93DF93EC0120E040E03E
:1016400050E060E070E080915407909155070E944F
:10165000B70324EF31E0C29FC001C39F900DD29F1A
:10166000900D11246FEF73E00E94811570934A076B
:101670006093490781E090E0909348078093470783
:10168000DF91CF9108956FEF7FEF80915607909192
:1016900057070E944904813071F40E94DD0E60E01A
:1016A00084E00E942B0F88E690E00E941E0F8CE2DF
:1016B00091E00E94940920E040E050E060E070E09A
:1016C00080915607909157070E94B70380E090E001
:1016D0000E941B0708956FEF7FEF8091560790914E
:1016E00057070E944904813031F48BE19BE00E944E
:1016F000CD0F0E94D20F8AEF90E00E949409EBCFA9
:1017000080914B078130B1F40E94430F80E790E055
:101710000E941E0F61E081E00E940F1088EE93E0AE
:101720000E94940910924B0760E081E00E940F1024
:101730000E94430F84EF91E00E949409E1CFC0E042
:10174000D0E08091470790914807019709F065C064
:101750008091490790914A07C817D90709F45DC0DD
:101760000E94430F88E790E00E941E0F89E497E0F3
:101770000E94470F61E081E00E942B0F83E890E018
:101780000E941E0F8091490790914A0745974CF49B
:101790008EE890E00E941E0F80E090E00E946014AE
:1017A00038C08091490790914A0745977CF0809115
:1017B000490790914A074F974CF482E990E00E94C4
:1017C0001E0F80E890E00E94601423C080914907BA
:1017D00090914A074F977CF08091490790914A0772
:1017E00084974CF486E990E00E941E0F88EC90E00C
:1017F0000E9460140EC08091490790914A07849717
:1018000044F08AE990E00E941E0F8FEF90E00E9462
:101810006014C0914907D0914A071092480710926E
:10182000470788EE93E00E9494098BCF61E081E046
:101830000E94E51161E08FE10E94E5110E94360DE2
:101840000E94B90F0E944C140E94601143E060E0B6
:1018500081E00E947603909357078093560720E01B
:1018600040E050E060E070E00E94B70343E060E0D9
:1018700081E00E947603909355078093540720E0FF
:1018800040E050E060E070E00E94B703E12CF12CF2
:1018900005E020E030E046E950E06FE970E083E4E5
:1018A0009BE00E94C206E0905207F090530704E0CC
:1018B00020E030E046E950E064EA70E08DEA9CE028
:1018C0000E94C206E0905007F090510703E020E02C
:1018D00030E046E950E06AEA70E08BE69BE00E9467
:1018E000C206E0904E07F0904F0704E020E030E0A1
:1018F00046E950E060EB70E080E89BE00E94C206A1
:10190000E0904C07F0904D0702E020E030E046E91F
:1019100050E066EB70E08FE99BE00E94C2060E94F7
:101920007307FFCFDC0190E020E030E012C0A90196
:10193000440F551F220F331F220F331F220F331F57
:10194000240F351FFD01E90FF11D4081240F311DCA
:101950009F5F961760F3C9010895CF93DF9300D07E
:1019600000D01F92CDB7DEB719821A821B821C826B
:101970008FEF8D8300E06FEF7FEF8091560790919E
:1019800057070E9449048130B1F70E94430F8CEB46
:1019900090E00E941E0F10E014C0CE0105960E9438
:1019A000BA0D8D818F3FC9F3E1E0F0E0EC0FFD1F30
:1019B000E10FF11D80839FEF9D83805D0E94450EA6
:1019C0001F5F143070F364E0CE0101960E94920C08
:1019D000209161003091620082179307F1F484E650
:1019E00090E00E9494090E94430F60E084E00E940E
:1019F0002B0F8CEC90E00E941E0F20E040E050E0A6
:101A000060E070E080915607909157070E94B703FD
:101A100080E090E00E941B0716C00E94430F82EDF9
:101A200090E00E941E0F8AEF90E00E94940920E04F
:101A300040E050E060E070E08091560790915707D9
:101A40000E94B7030F5F033009F095CF81E08093C8
:101A50004B076FEF7FEF80915607909157070E94D9
:101A6000490480E090E00E941B0785CF61E088E098
:101A70000E94E51161E089E00E94E51161E08AE0E1
:101A80000E94E51161E08BE00E94E51163E08CE0CB
:101A90000E94871263E08DE00E94871263E08EE06F
:101AA0000E94871263E08FE00E9487120895CF930F
:101AB000C82F682F617088E00E940F10C1FB662755
:101AC00060F989E00E940F10C2FB662760F98AE086
:101AD0000E940F10C3FB662760F98BE00E940F1075
:101AE000CF9108950F931F93CF93DF931F92CDB79C
:101AF000DEB78C011982BE016F5F7F4F8CE00E94C0
:101B0000E4108981F8018083BE016F5F7F4F8DE013
:101B10000E94E410898190E0880F991FF80190815C
:101B2000892B8083BE016F5F7F4F8EE00E94E4109F
:101B3000898190E0880F991F880F991FF801908183
:101B4000892B8083BE016F5F7F4F8FE00E94E4107E
:101B5000898190E0880F991F880F991F880F991F1E
:101B6000F8019081892B80830F90DF91CF911F9195
:101B70000F910895CF92DF92EF92FF920F931F93F0
:101B8000CF93DF931F92CDB7DEB76C01198210E0BF
:101B900000E06DC0E12EF12C81E090E0012E02C04A
:101BA000880F991F0A94E2F79FE089270E94570D3A
:101BB000CE0101960E94720D89818B3081F120F453
:101BC000873009F43FC051C08D30B1F08E3009F03C
:101BD0004CC0F701EE0FFF1FEE0FFF1FE352FF4F48
:101BE0008081F601808304C0CE0101960E94720DAF
:101BF00089818E30C9F33AC0F701EE0FFF1FEE0F57
:101C0000FF1FE252FF4F8081F601808304C0CE01A6
:101C100001960E94720D89818D30C9F327C0F701AA
:101C2000EE0FFF1FEE0FFF1FE152FF4F8081F60105
:101C3000808304C0CE0101960E94720D89818B3091
:101C4000C9F314C0F701EE0FFF1FEE0FFF1FE052A4
:101C5000FF4F8081F601808304C0CE0101960E946F
:101C6000720D89818730C9F301C001E01F5F143014
:101C700008F490CF802F0F90DF91CF911F910F919B
:101C8000FF90EF90DF90CF900895CF93C82F60E042
:101C900089E10E940F1061E08AE10E940F106C2F11
:101CA000617080E10E940F10C1FB662760F981E13D
:101CB0000E940F10C2FB662760F982E10E940F109C
:101CC000C3FB662760F983E10E940F10C4FB6627FF
:101CD00060F984E10E940F10C5FB662760F985E179
:101CE0000E940F10C6FB662760F986E10E940F1064
:101CF0006C2F661F6627661F87E10E940F1061E048
:101D000088E10E940F1082E090E00E94940960E058
:101D100088E10E940F10CF910895CF93C82F60E003
:101D20008AE10E940F1060E089E10E940F106C2F81
:101D3000617080E10E940F10C1FB662760F981E1AC
:101D40000E940F10C2FB662760F982E10E940F100B
:101D5000C3FB662760F983E10E940F10C4FB66276E
:101D600060F984E10E940F10C5FB662760F985E1E8
:101D70000E940F10C6FB662760F986E10E940F10D3
:101D80006C2F661F6627661F87E10E940F1061E0B7
:101D900088E10E940F108FE99FE00197F1F700C0E2
:101DA000000060E088E10E940F108FE19EE401973F
:101DB000F1F700C00000CF91089561E080E10E943A
:101DC000E51161E081E10E94E51161E082E10E949C
:101DD000E51161E083E10E94E51161E084E10E9488
:101DE000E51161E085E10E94E51161E086E10E9474
:101DF000E51161E087E10E94E51161E08AE10E945E
:101E0000E51161E089E10E94E51161E088E10E944D
:101E1000E51188E290E00E94940988E30E948D0E0B
:101E20008EE00E948D0E81E00E948D0E82E090E097
:101E30000E9494098CE00E948D0E0895CF93DF9349
:101E4000EC0103C00E94450E219688818111FACFD2
:101E5000DF91CF9108958431A8F4643098F4613013
:101E600039F060F0623031F0633031F090E007C05B
:101E700090EC05C094E903C094ED01C090E8890F8F
:101E80000E948D0E089581E00E948D0E0895CF93DB
:101E9000DF93FC014081518141155105A9F580E393
:101EA0000E94450E63C0CE01880F991FCC0FDD1F25
:101EB000CC0FDD1FCC0FDD1FC80FD91F9A01ADEC71
:101EC000BCEC0E9495159695879596958795969565
:101ED00087959C01220F331F880F991F880F991F28
:101EE000880F991F820F931F9A01281B390BC20F6D
:101EF000D31F9A010E949515AC01569547955695AA
:101F000047955695479502C0C1E0D0E0411551056F
:101F100051F629C09E01ADECBCEC0E94951596953A
:101F2000879596958795969587959C01220F331FE7
:101F3000880F991F880F991F880F991F820F931F71
:101F4000FE01E81BF90BCF01805D0E94450E9E014A
:101F5000ADECBCEC0E949515EC01D695C795D695D5
:101F6000C795D695C795C130D105A1F6DF91CF9120
:101F7000089586B1806886B986B1876086B987B1D1
:101F8000806487B987B187B986B1806286B980B726
:101F900080BF86B1886086B9089590935907809371
:101FA0005807089586B1886086B986B1806286B97F
:101FB00080B780BF86B1806486B908951F920F9262
:101FC0000FB60F9211242F933F934F935F936F930C
:101FD0007F938F939F93AF93BF93EF93FF9324B11E
:101FE00085B190E0982F8827E0915807F091590724
:101FF000820F911D099586B1806486B9FF91EF919A
:10200000BF91AF919F918F917F916F915F914F9110
:102010003F912F910F900FBE0F901F901895803217
:1020200008F0BEC0982F977086958695869581306A
:10203000A1F138F0823009F45CC0833009F485C026
:10204000B1C02AB330E0092E02C0359527950A9415
:10205000E2F720FFA9C0662389F0613009F0A6C02D
:102060004BB321E030E0B90102C0660F771F9A95AB
:10207000E2F7CB01842B8BBB80E008954BB321E0CA
:1020800030E0B90102C0660F771F9A95E2F7CB01E5
:10209000809584238BBB80E0089527B330E0092E20
:1020A00002C0359527950A94E2F720FF81C0662388
:1020B00089F0613009F07EC048B321E030E0B90119
:1020C00002C0660F771F9A95E2F7CB01842B88BB7D
:1020D00080E0089548B321E030E0B90102C0660F06
:1020E000771F9A95E2F7CB018095842388BB80E027
:1020F000089524B330E0092E02C0359527950A943F
:10210000E2F720FF59C0662389F0613009F056C01C
:1021100045B321E030E0B90102C0660F771F9A9500
:10212000E2F7CB01842B85BB80E0089545B321E025
:1021300030E0B90102C0660F771F9A95E2F7CB0134
:102140008095842385BB80E0089521B330E0092E7B
:1021500002C0359527950A94E2F720FF31C0662327
:1021600081F0613079F542B321E030E0B90102C07D
:10217000660F771F9A95E2F7CB01842B82BB80E034
:10218000089542B321E030E0B90102C0660F771F25
:102190009A95E2F7CB018095842382BB80E0089575
:1021A00081E0089580E0089582E0089580E0089538
:1021B00082E0089580E0089582E0089580E0089527
:1021C00082E0089580E00895803208F06FC0982F73
:1021D00097708695869586958130F1F030F0823043
:1021E00099F1833009F449C063C02AB330E0092E65
:1021F00002C0359527950A94E2F720FD0FC029B358
:1022000030E0092E02C0359527950A94E2F7217037
:10221000FB01208380E003C080E001C082E027B39F
:1022200030E0092E02C0359527950A94E2F720FD8B
:1022300041C026B330E002C0359527959A95E2F764
:102240002170FB012083089524B330E0092E02C0E1
:10225000359527950A94E2F720FD2EC083B3282FE9
:1022600030E0A90102C0559547959A95E2F7CA0159
:102270008170FB01808380E0089521B330E0092E56
:1022800002C0359527950A94E2F720FD17C080B368
:10229000282F30E0A90102C0559547959A95E2F79D
:1022A000CA018170FB01808380E0089581E0089578
:1022B00083E0089582E0089582E0089582E0089521
:1022C0008FB780688FBF08951F920F920FB60F923D
:1022D00011242F933F934F935F936F937F938F932B
:1022E0009F93AF93BF93EF93FF93E0915A07F091C1
:1022F0005B07309721F009958AB780648ABFFF9108
:10230000EF91BF91AF919F918F917F916F915F916D
:102310004F913F912F910F900FBE0F901F901895E6
:102320001F920F920FB60F9211242F933F934F934A
:102330005F936F937F938F939F93AF93BF93EF932D
:10234000FF93E0915C07F0915D07309721F00995CC
:102350008AB780688ABFFF91EF91BF91AF919F913B
:102360008F917F916F915F914F913F912F910F903E
:102370000FBE0F901F9018951F920F920FB60F92DD
:1023800011242F933F934F935F936F937F938F937A
:102390009F93AF93BF93EF93FF93E0915E07F0910C
:1023A0005F07309709F00995FF91EF91BF91AF91C9
:1023B0009F918F917F916F915F914F913F912F915D
:1023C0000F900FBE0F901F901895803208F093C0A9
:1023D000982F9770869586958695813049F138F0CB
:1023E000823009F446C0833009F464C086C061308D
:1023F00071F44AB321E030E0B90102C0660F771FE3
:102400009A95E2F7CB01842B8ABB80E00895611195
:1024100076C04AB321E030E0B90102C0660F771FF1
:102420009A95E2F7CB01809584238ABB80E00895DA
:10243000613071F447B321E030E0B90102C0660FAA
:10244000771F9A95E2F7CB01842B87BB80E0089534
:10245000611157C047B321E030E0B90102C0660FF7
:10246000771F9A95E2F7CB018095842387BB80E0A4
:102470000895613071F444B321E030E0B90102C045
:10248000660F771F9A95E2F7CB01842B84BB80E01F
:102490000895611138C044B321E030E0B90102C0B1
:1024A000660F771F9A95E2F7CB018095842384BB52
:1024B00080E00895613071F441B321E030E0B9016A
:1024C00002C0660F771F9A95E2F7CB01842B81BB80
:1024D00080E00895611119C041B321E030E0B901F5
:1024E00002C0660F771F9A95E2F7CB01809584238F
:1024F00081BB80E0089581E0089582E0089580E046
:10250000089580E0089580E0089580E00895803285
:1025100008F05CC1982F97708695869586958130D6
:1025200009F45BC038F0823009F4AAC0833009F4A2
:10253000FAC04EC1613031F0B8F0623041F1633021
:10254000C9F148C14AB321E030E0B90102C0660FC9
:10255000771F9A95E2F7CB01942F982B9ABB9BB3E8
:10256000892B8BBB80E008954AB321E030E0B901AC
:1025700002C0660F771F9A95E2F7CB01942F982B34
:102580009ABB9BB3809589238BBB80E008954AB3A7
:1025900021E030E0B90102C0660F771F9A95E2F79B
:1025A000CB018095942F98239ABB9BB389238BBB37
:1025B00080E008954AB321E030E0B90102C0660F1F
:1025C000771F9A95E2F7CB01962F909594239ABBAB
:1025D0009BB3892B8BBB80E00895613031F0B8F05C
:1025E000623041F16330C9F1F7C047B321E030E018
:1025F000B90102C0660F771F9A95E2F7CB01942FBD
:10260000982B97BB98B3892B88BB80E0089547B37C
:1026100021E030E0B90102C0660F771F9A95E2F71A
:10262000CB01942F982B97BB98B38095892388BBB7
:1026300080E0089547B321E030E0B90102C0660FA1
:10264000771F9A95E2F7CB018095942F982397BB3B
:1026500098B3892388BB80E0089547B321E030E038
:10266000B90102C0660F771F9A95E2F7CB01962F4A
:102670009095942397BB98B3892B88BB80E00895ED
:10268000613031F0B8F0623041F16330C9F1A6C079
:1026900044B321E030E0B90102C0660F771F9A957C
:1026A000E2F7CB01942F982B94BB95B3892B85BB74
:1026B00080E0089544B321E030E0B90102C0660F24
:1026C000771F9A95E2F7CB01942F982B94BB95B383
:1026D0008095892385BB80E0089544B321E030E0F4
:1026E000B90102C0660F771F9A95E2F7CB0180957A
:1026F000942F982394BB95B3892385BB80E00895DC
:1027000044B321E030E0B90102C0660F771F9A950B
:10271000E2F7CB01962F9095942394BB95B3892B28
:1027200085BB80E00895613031F0B8F0623041F14E
:102730006330C9F155C041B321E030E0B90102C0B6
:10274000660F771F9A95E2F7CB01942F982B91BBD8
:1027500092B3892B82BB80E0089541B321E030E041
:10276000B90102C0660F771F9A95E2F7CB01942F4B
:10277000982B91BB92B38095892382BB80E008950A
:1027800041B321E030E0B90102C0660F771F9A958E
:10279000E2F7CB018095942F982391BB92B38923C4
:1027A00082BB80E0089541B321E030E0B90102C06E
:1027B000660F771F9A95E2F7CB01962F9095942399
:1027C00091BB92B3892B82BB80E0089581E008958C
:1027D00080E0089584E0089584E0089584E00895F9
:1027E00084E008951F920F920FB60F9211242F9339
:1027F0003F934F935F936F937F938F939F93AF9389
:10280000BF93EF93FF93E0916007F09161073097DA
:1028100009F00995FF91EF91BF91AF919F918F9131
:102820007F916F915F914F913F912F910F900FBECC
:102830000F901F9018951F920F920FB60F921124B0
:102840002F933F934F935F936F937F938F939F93B8
:10285000AF93BF93EF93FF93E0916207F09163070B
:102860000995FF91EF91BF91AF919F918F917F91CA
:102870006F915F914F913F912F910F900FBE0F90ED
:102880001F9018951F920F920FB60F9211240F9060
:102890000FBE0F901F90189585B5806485BD85B5D6
:1028A000886085BD85B58F7E85BD85B5806285BD17
:1028B00013BC85B5887F85BD85B5836085BD0895CA
:1028C00083BD08951F920F920FB60F9211242F937C
:1028D0003F934F935F936F937F938F939F93AF93A8
:1028E000BF93EF93FF93E0917607F09177073097CE
:1028F00009F00995FF91EF91BF91AF919F918F9151
:102900007F916F915F914F913F912F910F900FBEEB
:102910000F901F9018951F920F920FB60F921124CF
:102920002F933F934F935F936F937F938F939F93D7
:10293000AF93BF93EF93FF93E0917407F091750706
:10294000309709F00995FF91EF91BF91AF919F9159
:102950008F917F916F915F914F913F912F910F9048
:102960000FBE0F901F9018951F920F920FB60F92E7
:1029700011242F933F934F935F936F937F938F9384
:102980009F93AF93BF93EF93FF93E0917007F09104
:102990007107309709F00995FF91EF91BF91AF91C1
:1029A0009F918F917F916F915F914F913F912F9167
:1029B0000F900FBE0F901F9018951F920F920FB699
:1029C0000F9211242F933F934F935F936F937F93B5
:1029D0008F939F93AF93BF93EF93FF93E0916E0715
:1029E000F0916F07309709F00995FF91EF91BF9132
:1029F000AF919F918F917F916F915F914F913F9197
:102A00002F910F900FBE0F901F9018951F920F924D
:102A10000FB60F9211242F933F934F935F936F93B1
:102A20007F938F939F93AF93BF93EF93FF93E09127
:102A30006C07F0916D07309709F00995FF91EF91C0
:102A4000BF91AF919F918F917F916F915F914F91C6
:102A50003F912F910F900FBE0F901F9018951F92CE
:102A60000F920FB60F9211242F933F934F935F93C2
:102A70006F937F938F939F93AF93BF93EF93FF9346
:102A8000E0918607F0918707309709F00995FF914B
:102A9000EF91BF91AF919F918F917F916F915F91D6
:102AA0004F913F912F910F900FBE0F901F9018954F
:102AB0001F920F920FB60F9211242F933F934F93B3
:102AC0005F936F937F938F939F93AF93BF93EF9396
:102AD000FF93E0918407F0918507309709F00995FD
:102AE000FF91EF91BF91AF919F918F917F916F91E6
:102AF0005F914F913F912F910F900FBE0F901F90BC
:102B00001895AA1BBB1B51E107C0AA1FBB1FA61724
:102B1000B70710F0A61BB70B881F991F5A95A9F786
:102B200080959095BC01CD010895A29FB001B39FFF
:102B3000C001A39F700D811D1124911DB29F700DC6
:102B4000811D1124911D0895FB01DC0102C001903B
:0E2B50000D9241505040D8F70895F894FFCFF1
:102B5E0005D20449444C450057454C434F4D450062
:102B6E005741524E494E4700524F4F4D2054454DFE
:102B7E0050200046414E20535045454420004F46BC
:102B8E0046003530250037352500313030250049D7
:102B9E006E6974005461736B31005461736B320053
:102BAE005461736B33005461736B3400456E7465FE
:102BBE00722070617373776F72642000646F6E653C
:102BCE00200077726F6E675F70617373000708097C
:0E2BDE00FF040506FA010203FD04000DFB00D2
:00000001FF
